{
  "contractName": "LiquidityPool",
  "abi": [
    {
      "inputs": [],
      "name": "reserve",
      "outputs": [
        {
          "internalType": "uint256",
          "name": "reserve0",
          "type": "uint256"
        },
        {
          "internalType": "uint256",
          "name": "reserve1",
          "type": "uint256"
        }
      ],
      "stateMutability": "view",
      "type": "function"
    },
    {
      "inputs": [],
      "name": "getReserves",
      "outputs": [
        {
          "internalType": "uint256",
          "name": "",
          "type": "uint256"
        },
        {
          "internalType": "uint256",
          "name": "",
          "type": "uint256"
        }
      ],
      "stateMutability": "view",
      "type": "function"
    },
    {
      "inputs": [],
      "name": "getInvariant",
      "outputs": [
        {
          "internalType": "uint256",
          "name": "",
          "type": "uint256"
        }
      ],
      "stateMutability": "view",
      "type": "function"
    }
  ],
  "bytecode": "0x608060405234801561001057600080fd5b5061021f806100206000396000f3fe608060405234801561001057600080fd5b50600436106100415760003560e01c80630902f1ac14610046578063c0ff1a1514610065578063cd3293de14610083575b600080fd5b61004e6100a2565b60405161005c92919061012d565b60405180910390f35b61006d6100b8565b60405161007a9190610112565b60405180910390f35b61008b6100db565b60405161009992919061012d565b60405180910390f35b6000806000800154600060010154915091509091565b60006100d660006001015460008001546100ed90919063ffffffff16565b905090565b60008060000154908060010154905082565b600081836100fb9190610156565b905092915050565b61010c816101b0565b82525050565b60006020820190506101276000830184610103565b92915050565b60006040820190506101426000830185610103565b61014f6020830184610103565b9392505050565b6000610161826101b0565b915061016c836101b0565b9250817fffffffffffffffffffffffffffffffffffffffffffffffffffffffffffffffff04831182151516156101a5576101a46101ba565b5b828202905092915050565b6000819050919050565b7f4e487b7100000000000000000000000000000000000000000000000000000000600052601160045260246000fdfea2646970667358221220468c2832df2578f41af4b6dcadeb12c2f339f80111c3b5c06f130d38718da1a764736f6c63430008000033",
  "immutableReferences": {},
  "source": "\r\n// SPDX-License-Identifier: GPL-3.0\r\npragma solidity ^0.8.0;\r\n\r\nimport \"@openzeppelin/contracts/utils/math/SafeMath.sol\";\r\nimport \"@openzeppelin/contracts/token/ERC20/ERC20.sol\";\r\n\r\ncontract LiquidityPool\r\n{\r\n    \r\n    using SafeMath for uint256;\r\n\r\n    struct Reserve\r\n    {\r\n        uint256 reserve0; //Test Tokens reserve\r\n        uint256 reserve1; //DAI reserve\r\n       // uint256 invariant; \r\n    }\r\n    \r\n    Reserve public reserve;\r\n  \r\n    //Update reserves\r\n    function update(uint256 _reserve0, uint256 _reserve1) \r\n    internal\r\n    {\r\n        reserve.reserve0 = _reserve0;\r\n        reserve.reserve1 = _reserve1;\r\n    }\r\n    \r\n    \r\n    function getReserves() public view returns (uint256, uint256)\r\n    {\r\n        return (reserve.reserve0, reserve.reserve1);\r\n    }\r\n    \r\n    //Get reserve1*  reserve2 for reserve1 * reserve2 = invariant formula\r\n    function getInvariant() public view returns (uint256) \r\n    {\r\n        return reserve.reserve0.mul(reserve.reserve1);\r\n    }\r\n\r\n    \r\n}",
  "sourcePath": "D:/Programs/WebProjects/test-dex/contracts/LiquidityPool.sol",
  "compiler": {
    "name": "solc",
    "version": "0.8.0+commit.c7dfd78e.Emscripten.clang"
  },
  "schemaVersion": "3.4.0",
  "updatedAt": "2021-05-03T13:41:44.057Z",
  "devdoc": {
    "kind": "dev",
    "methods": {},
    "version": 1
  },
  "userdoc": {
    "kind": "user",
    "methods": {},
    "version": 1
  }
}