{
  "contractName": "TestSwap",
  "abi": [
    {
      "inputs": [],
      "stateMutability": "nonpayable",
      "type": "constructor"
    },
    {
      "anonymous": false,
      "inputs": [
        {
          "indexed": false,
          "internalType": "address",
          "name": "addr",
          "type": "address"
        }
      ],
      "name": "AddressSet",
      "type": "event"
    },
    {
      "anonymous": false,
      "inputs": [
        {
          "indexed": true,
          "internalType": "address",
          "name": "previousOwner",
          "type": "address"
        },
        {
          "indexed": true,
          "internalType": "address",
          "name": "newOwner",
          "type": "address"
        }
      ],
      "name": "OwnershipTransferred",
      "type": "event"
    },
    {
      "anonymous": false,
      "inputs": [
        {
          "indexed": false,
          "internalType": "address",
          "name": "buyer",
          "type": "address"
        },
        {
          "indexed": false,
          "internalType": "uint256",
          "name": "_value",
          "type": "uint256"
        },
        {
          "indexed": false,
          "internalType": "uint256",
          "name": "_amount",
          "type": "uint256"
        }
      ],
      "name": "TokensBought",
      "type": "event"
    },
    {
      "anonymous": false,
      "inputs": [
        {
          "indexed": false,
          "internalType": "address",
          "name": "seller",
          "type": "address"
        },
        {
          "indexed": false,
          "internalType": "uint256",
          "name": "_value",
          "type": "uint256"
        },
        {
          "indexed": false,
          "internalType": "uint256",
          "name": "_amount",
          "type": "uint256"
        }
      ],
      "name": "TokensSold",
      "type": "event"
    },
    {
      "inputs": [],
      "name": "flag",
      "outputs": [
        {
          "internalType": "bool",
          "name": "",
          "type": "bool"
        }
      ],
      "stateMutability": "view",
      "type": "function",
      "constant": true
    },
    {
      "inputs": [],
      "name": "getInvariant",
      "outputs": [
        {
          "internalType": "uint256",
          "name": "",
          "type": "uint256"
        }
      ],
      "stateMutability": "view",
      "type": "function",
      "constant": true
    },
    {
      "inputs": [],
      "name": "getReserves",
      "outputs": [
        {
          "internalType": "uint256",
          "name": "",
          "type": "uint256"
        },
        {
          "internalType": "uint256",
          "name": "",
          "type": "uint256"
        }
      ],
      "stateMutability": "view",
      "type": "function",
      "constant": true
    },
    {
      "inputs": [],
      "name": "invariant",
      "outputs": [
        {
          "internalType": "uint256",
          "name": "",
          "type": "uint256"
        }
      ],
      "stateMutability": "view",
      "type": "function",
      "constant": true
    },
    {
      "inputs": [],
      "name": "owner",
      "outputs": [
        {
          "internalType": "address",
          "name": "",
          "type": "address"
        }
      ],
      "stateMutability": "view",
      "type": "function",
      "constant": true
    },
    {
      "inputs": [],
      "name": "renounceOwnership",
      "outputs": [],
      "stateMutability": "nonpayable",
      "type": "function"
    },
    {
      "inputs": [],
      "name": "reserve",
      "outputs": [
        {
          "internalType": "uint256",
          "name": "reserve0",
          "type": "uint256"
        },
        {
          "internalType": "uint256",
          "name": "reserve1",
          "type": "uint256"
        }
      ],
      "stateMutability": "view",
      "type": "function",
      "constant": true
    },
    {
      "inputs": [],
      "name": "tDAI",
      "outputs": [
        {
          "internalType": "contract ERC20",
          "name": "",
          "type": "address"
        }
      ],
      "stateMutability": "view",
      "type": "function",
      "constant": true
    },
    {
      "inputs": [],
      "name": "token",
      "outputs": [
        {
          "internalType": "contract TestToken",
          "name": "",
          "type": "address"
        }
      ],
      "stateMutability": "view",
      "type": "function",
      "constant": true
    },
    {
      "inputs": [
        {
          "internalType": "address",
          "name": "newOwner",
          "type": "address"
        }
      ],
      "name": "transferOwnership",
      "outputs": [],
      "stateMutability": "nonpayable",
      "type": "function"
    },
    {
      "inputs": [],
      "name": "usdtToken",
      "outputs": [
        {
          "internalType": "contract ERC20",
          "name": "",
          "type": "address"
        }
      ],
      "stateMutability": "view",
      "type": "function",
      "constant": true
    },
    {
      "inputs": [
        {
          "internalType": "uint256",
          "name": "_price",
          "type": "uint256"
        }
      ],
      "name": "setTokenPrice",
      "outputs": [],
      "stateMutability": "nonpayable",
      "type": "function"
    },
    {
      "inputs": [
        {
          "internalType": "contract TestToken",
          "name": "_token",
          "type": "address"
        }
      ],
      "name": "setTokenAddr",
      "outputs": [],
      "stateMutability": "nonpayable",
      "type": "function"
    },
    {
      "inputs": [
        {
          "internalType": "address",
          "name": "_tDAI",
          "type": "address"
        }
      ],
      "name": "setTestDaiAddr",
      "outputs": [],
      "stateMutability": "nonpayable",
      "type": "function"
    },
    {
      "inputs": [],
      "name": "getTokenAddress",
      "outputs": [
        {
          "internalType": "address",
          "name": "",
          "type": "address"
        }
      ],
      "stateMutability": "view",
      "type": "function",
      "constant": true
    },
    {
      "inputs": [
        {
          "internalType": "address",
          "name": "to",
          "type": "address"
        },
        {
          "internalType": "uint256",
          "name": "amountIn",
          "type": "uint256"
        }
      ],
      "name": "swapExactDAIforTTL",
      "outputs": [],
      "stateMutability": "payable",
      "type": "function",
      "payable": true
    },
    {
      "inputs": [
        {
          "internalType": "address",
          "name": "to",
          "type": "address"
        },
        {
          "internalType": "uint256",
          "name": "amountIn",
          "type": "uint256"
        }
      ],
      "name": "swapExactTTLforDAI",
      "outputs": [],
      "stateMutability": "payable",
      "type": "function",
      "payable": true
    },
    {
      "inputs": [
        {
          "internalType": "address",
          "name": "buyer",
          "type": "address"
        },
        {
          "internalType": "uint256",
          "name": "amountOut",
          "type": "uint256"
        }
      ],
      "name": "swapDAIforExactTTL",
      "outputs": [],
      "stateMutability": "payable",
      "type": "function",
      "payable": true
    }
  ],
  "bytecode": "0x60806040526000600560146101000a81548160ff02191690831515021790555034801561002b57600080fd5b50600061003c61013560201b60201c565b905080600260006101000a81548173ffffffffffffffffffffffffffffffffffffffff021916908373ffffffffffffffffffffffffffffffffffffffff1602179055508073ffffffffffffffffffffffffffffffffffffffff16600073ffffffffffffffffffffffffffffffffffffffff167f8be0079c531659141344cd1fd0a4f28419497f9722a3daafe3b4186f6b6457e060405160405180910390a35073ad6d458402f60fd3bd25163575031acdce07538d600460006101000a81548173ffffffffffffffffffffffffffffffffffffffff021916908373ffffffffffffffffffffffffffffffffffffffff16021790555061013d565b600033905090565b611b288061014c6000396000f3fe6080604052600436106101095760003560e01c8063a98ad46c11610095578063cd3293de11610064578063cd3293de14610308578063dcb8364514610334578063e8fac5f414610350578063f2fde38b14610379578063fc0c546a146103a257610109565b8063a98ad46c1461026b578063abc48d2f14610296578063b03a9a05146102b2578063c0ff1a15146102dd57610109565b80636a61e5fc116100dc5780636a61e5fc146101aa578063715018a6146101d3578063890eba68146101ea5780638da5cb5b146102155780639952ebbf1461024057610109565b80630902f1ac1461010e57806310fe9ae81461013a5780632ebd1e281461016557806344f602201461018e575b600080fd5b34801561011a57600080fd5b506101236103cd565b604051610131929190611847565b60405180910390f35b34801561014657600080fd5b5061014f6103e3565b60405161015c91906116e9565b60405180910390f35b34801561017157600080fd5b5061018c6004803603810190610187919061157d565b61040d565b005b6101a860048036038101906101a39190611518565b6105f1565b005b3480156101b657600080fd5b506101d160048036038101906101cc91906115a6565b6107f0565b005b3480156101df57600080fd5b506101e86109cf565b005b3480156101f657600080fd5b506101ff610b0c565b60405161020c919061179b565b60405180910390f35b34801561022157600080fd5b5061022a610b1f565b60405161023791906116e9565b60405180910390f35b34801561024c57600080fd5b50610255610b49565b60405161026291906117b6565b60405180910390f35b34801561027757600080fd5b50610280610b6f565b60405161028d91906117b6565b60405180910390f35b6102b060048036038101906102ab9190611518565b610b95565b005b3480156102be57600080fd5b506102c7610f43565b6040516102d4919061182c565b60405180910390f35b3480156102e957600080fd5b506102f2610f49565b6040516102ff919061182c565b60405180910390f35b34801561031457600080fd5b5061031d610f6c565b60405161032b929190611847565b60405180910390f35b61034e60048036038101906103499190611518565b610f7e565b005b34801561035c57600080fd5b50610377600480360381019061037291906114ef565b61117d565b005b34801561038557600080fd5b506103a0600480360381019061039b91906114ef565b61123d565b005b3480156103ae57600080fd5b506103b76113e9565b6040516103c491906117d1565b60405180910390f35b6000806000800154600060010154915091509091565b6000600360009054906101000a900473ffffffffffffffffffffffffffffffffffffffff16905090565b61041561140f565b73ffffffffffffffffffffffffffffffffffffffff16610433610b1f565b73ffffffffffffffffffffffffffffffffffffffff1614610489576040517f08c379a00000000000000000000000000000000000000000000000000000000081526004016104809061180c565b60405180910390fd5b80600360006101000a81548173ffffffffffffffffffffffffffffffffffffffff021916908373ffffffffffffffffffffffffffffffffffffffff160217905550610587600360009054906101000a900473ffffffffffffffffffffffffffffffffffffffff1673ffffffffffffffffffffffffffffffffffffffff166370a08231306040518263ffffffff1660e01b815260040161052891906116e9565b60206040518083038186803b15801561054057600080fd5b505afa158015610554573d6000803e3d6000fd5b505050506040513d601f19601f8201168201806040525081019061057891906115cf565b6802b5e3af16b1880000611417565b61058f610f49565b6006819055507f88749aed52403b3a8ec7763273d5665190617f46de93b08aab1cc6ec80dc2fb4600360009054906101000a900473ffffffffffffffffffffffffffffffffffffffff166040516105e691906116e9565b60405180910390a150565b6000806105fc6103cd565b915091506000610615848461142e90919063ffffffff16565b9050600061062e8260065461144490919063ffffffff16565b90506000818461063e9190611962565b9050600360009054906101000a900473ffffffffffffffffffffffffffffffffffffffff1673ffffffffffffffffffffffffffffffffffffffff166323b872dd8830896040518463ffffffff1660e01b815260040161069f93929190611704565b602060405180830381600087803b1580156106b957600080fd5b505af11580156106cd573d6000803e3d6000fd5b505050506040513d601f19601f820116820180604052508101906106f19190611554565b50600460009054906101000a900473ffffffffffffffffffffffffffffffffffffffff1673ffffffffffffffffffffffffffffffffffffffff1663a9059cbb88836040518363ffffffff1660e01b815260040161074f92919061173b565b602060405180830381600087803b15801561076957600080fd5b505af115801561077d573d6000803e3d6000fd5b505050506040513d601f19601f820116820180604052508101906107a19190611554565b506107ac8383611417565b7f8442948036198f1146d3a63c3db355d7e0295c2cc5676c755990445da4fdc1c98787836040516107df93929190611764565b60405180910390a150505050505050565b6107f861140f565b73ffffffffffffffffffffffffffffffffffffffff16610816610b1f565b73ffffffffffffffffffffffffffffffffffffffff161461086c576040517f08c379a00000000000000000000000000000000000000000000000000000000081526004016108639061180c565b60405180910390fd5b600061092082600360009054906101000a900473ffffffffffffffffffffffffffffffffffffffff1673ffffffffffffffffffffffffffffffffffffffff166318160ddd6040518163ffffffff1660e01b815260040160206040518083038186803b1580156108da57600080fd5b505afa1580156108ee573d6000803e3d6000fd5b505050506040513d601f19601f8201168201806040525081019061091291906115cf565b61145a90919063ffffffff16565b90506109cb600360009054906101000a900473ffffffffffffffffffffffffffffffffffffffff1673ffffffffffffffffffffffffffffffffffffffff166318160ddd6040518163ffffffff1660e01b815260040160206040518083038186803b15801561098d57600080fd5b505afa1580156109a1573d6000803e3d6000fd5b505050506040513d601f19601f820116820180604052508101906109c591906115cf565b82611417565b5050565b6109d761140f565b73ffffffffffffffffffffffffffffffffffffffff166109f5610b1f565b73ffffffffffffffffffffffffffffffffffffffff1614610a4b576040517f08c379a0000000000000000000000000000000000000000000000000000000008152600401610a429061180c565b60405180910390fd5b600073ffffffffffffffffffffffffffffffffffffffff16600260009054906101000a900473ffffffffffffffffffffffffffffffffffffffff1673ffffffffffffffffffffffffffffffffffffffff167f8be0079c531659141344cd1fd0a4f28419497f9722a3daafe3b4186f6b6457e060405160405180910390a36000600260006101000a81548173ffffffffffffffffffffffffffffffffffffffff021916908373ffffffffffffffffffffffffffffffffffffffff160217905550565b600560149054906101000a900460ff1681565b6000600260009054906101000a900473ffffffffffffffffffffffffffffffffffffffff16905090565b600560009054906101000a900473ffffffffffffffffffffffffffffffffffffffff1681565b600460009054906101000a900473ffffffffffffffffffffffffffffffffffffffff1681565b600080610ba06103cd565b91509150600081905083831015610bb657600080fd5b6000610bcb858561147090919063ffffffff16565b9050600080821415610bf557610bee6103e860065461145a90919063ffffffff16565b9050610c0d565b610c0a8260065461144490919063ffffffff16565b90505b6000610c22848361147090919063ffffffff16565b905080600460009054906101000a900473ffffffffffffffffffffffffffffffffffffffff1673ffffffffffffffffffffffffffffffffffffffff166370a082318a6040518263ffffffff1660e01b8152600401610c8091906116e9565b60206040518083038186803b158015610c9857600080fd5b505afa158015610cac573d6000803e3d6000fd5b505050506040513d601f19601f82011682018060405250810190610cd091906115cf565b1015610cdb57600080fd5b86600360009054906101000a900473ffffffffffffffffffffffffffffffffffffffff1673ffffffffffffffffffffffffffffffffffffffff166370a08231306040518263ffffffff1660e01b8152600401610d3791906116e9565b60206040518083038186803b158015610d4f57600080fd5b505afa158015610d63573d6000803e3d6000fd5b505050506040513d601f19601f82011682018060405250810190610d8791906115cf565b1015610d9257600080fd5b600460009054906101000a900473ffffffffffffffffffffffffffffffffffffffff1673ffffffffffffffffffffffffffffffffffffffff166323b872dd8930846040518463ffffffff1660e01b8152600401610df193929190611704565b602060405180830381600087803b158015610e0b57600080fd5b505af1158015610e1f573d6000803e3d6000fd5b505050506040513d601f19601f82011682018060405250810190610e439190611554565b50600360009054906101000a900473ffffffffffffffffffffffffffffffffffffffff1673ffffffffffffffffffffffffffffffffffffffff1663a9059cbb89896040518363ffffffff1660e01b8152600401610ea192919061173b565b602060405180830381600087803b158015610ebb57600080fd5b505af1158015610ecf573d6000803e3d6000fd5b505050506040513d601f19601f82011682018060405250810190610ef39190611554565b50610efe8383611417565b7f8442948036198f1146d3a63c3db355d7e0295c2cc5676c755990445da4fdc1c9888289604051610f3193929190611764565b60405180910390a15050505050505050565b60065481565b6000610f67600060010154600080015461145a90919063ffffffff16565b905090565b60008060000154908060010154905082565b600080610f896103cd565b915091506000610fa2848361142e90919063ffffffff16565b90506000610fbb8260065461144490919063ffffffff16565b905060008185610fcb9190611962565b9050600460009054906101000a900473ffffffffffffffffffffffffffffffffffffffff1673ffffffffffffffffffffffffffffffffffffffff166323b872dd8830896040518463ffffffff1660e01b815260040161102c93929190611704565b602060405180830381600087803b15801561104657600080fd5b505af115801561105a573d6000803e3d6000fd5b505050506040513d601f19601f8201168201806040525081019061107e9190611554565b50600360009054906101000a900473ffffffffffffffffffffffffffffffffffffffff1673ffffffffffffffffffffffffffffffffffffffff1663a9059cbb88836040518363ffffffff1660e01b81526004016110dc92919061173b565b602060405180830381600087803b1580156110f657600080fd5b505af115801561110a573d6000803e3d6000fd5b505050506040513d601f19601f8201168201806040525081019061112e9190611554565b506111398284611417565b7f8442948036198f1146d3a63c3db355d7e0295c2cc5676c755990445da4fdc1c987878360405161116c93929190611764565b60405180910390a150505050505050565b61118561140f565b73ffffffffffffffffffffffffffffffffffffffff166111a3610b1f565b73ffffffffffffffffffffffffffffffffffffffff16146111f9576040517f08c379a00000000000000000000000000000000000000000000000000000000081526004016111f09061180c565b60405180910390fd5b80600560006101000a81548173ffffffffffffffffffffffffffffffffffffffff021916908373ffffffffffffffffffffffffffffffffffffffff16021790555050565b61124561140f565b73ffffffffffffffffffffffffffffffffffffffff16611263610b1f565b73ffffffffffffffffffffffffffffffffffffffff16146112b9576040517f08c379a00000000000000000000000000000000000000000000000000000000081526004016112b09061180c565b60405180910390fd5b600073ffffffffffffffffffffffffffffffffffffffff168173ffffffffffffffffffffffffffffffffffffffff161415611329576040517f08c379a0000000000000000000000000000000000000000000000000000000008152600401611320906117ec565b60405180910390fd5b8073ffffffffffffffffffffffffffffffffffffffff16600260009054906101000a900473ffffffffffffffffffffffffffffffffffffffff1673ffffffffffffffffffffffffffffffffffffffff167f8be0079c531659141344cd1fd0a4f28419497f9722a3daafe3b4186f6b6457e060405160405180910390a380600260006101000a81548173ffffffffffffffffffffffffffffffffffffffff021916908373ffffffffffffffffffffffffffffffffffffffff16021790555050565b600360009054906101000a900473ffffffffffffffffffffffffffffffffffffffff1681565b600033905090565b816000800181905550806000600101819055505050565b6000818361143c9190611881565b905092915050565b6000818361145291906118d7565b905092915050565b600081836114689190611908565b905092915050565b6000818361147e9190611962565b905092915050565b60008135905061149581611a96565b92915050565b6000815190506114aa81611aad565b92915050565b6000813590506114bf81611ac4565b92915050565b6000813590506114d481611adb565b92915050565b6000815190506114e981611adb565b92915050565b60006020828403121561150157600080fd5b600061150f84828501611486565b91505092915050565b6000806040838503121561152b57600080fd5b600061153985828601611486565b925050602061154a858286016114c5565b9150509250929050565b60006020828403121561156657600080fd5b60006115748482850161149b565b91505092915050565b60006020828403121561158f57600080fd5b600061159d848285016114b0565b91505092915050565b6000602082840312156115b857600080fd5b60006115c6848285016114c5565b91505092915050565b6000602082840312156115e157600080fd5b60006115ef848285016114da565b91505092915050565b61160181611996565b82525050565b611610816119a8565b82525050565b61161f816119f0565b82525050565b61162e81611a14565b82525050565b6000611641602683611870565b91507f4f776e61626c653a206e6577206f776e657220697320746865207a65726f206160008301527f64647265737300000000000000000000000000000000000000000000000000006020830152604082019050919050565b60006116a7602083611870565b91507f4f776e61626c653a2063616c6c6572206973206e6f7420746865206f776e65726000830152602082019050919050565b6116e3816119e6565b82525050565b60006020820190506116fe60008301846115f8565b92915050565b600060608201905061171960008301866115f8565b61172660208301856115f8565b61173360408301846116da565b949350505050565b600060408201905061175060008301856115f8565b61175d60208301846116da565b9392505050565b600060608201905061177960008301866115f8565b61178660208301856116da565b61179360408301846116da565b949350505050565b60006020820190506117b06000830184611607565b92915050565b60006020820190506117cb6000830184611616565b92915050565b60006020820190506117e66000830184611625565b92915050565b6000602082019050818103600083015261180581611634565b9050919050565b600060208201905081810360008301526118258161169a565b9050919050565b600060208201905061184160008301846116da565b92915050565b600060408201905061185c60008301856116da565b61186960208301846116da565b9392505050565b600082825260208201905092915050565b600061188c826119e6565b9150611897836119e6565b9250827fffffffffffffffffffffffffffffffffffffffffffffffffffffffffffffffff038211156118cc576118cb611a38565b5b828201905092915050565b60006118e2826119e6565b91506118ed836119e6565b9250826118fd576118fc611a67565b5b828204905092915050565b6000611913826119e6565b915061191e836119e6565b9250817fffffffffffffffffffffffffffffffffffffffffffffffffffffffffffffffff048311821515161561195757611956611a38565b5b828202905092915050565b600061196d826119e6565b9150611978836119e6565b92508282101561198b5761198a611a38565b5b828203905092915050565b60006119a1826119c6565b9050919050565b60008115159050919050565b60006119bf82611996565b9050919050565b600073ffffffffffffffffffffffffffffffffffffffff82169050919050565b6000819050919050565b60006119fb82611a02565b9050919050565b6000611a0d826119c6565b9050919050565b6000611a1f82611a26565b9050919050565b6000611a31826119c6565b9050919050565b7f4e487b7100000000000000000000000000000000000000000000000000000000600052601160045260246000fd5b7f4e487b7100000000000000000000000000000000000000000000000000000000600052601260045260246000fd5b611a9f81611996565b8114611aaa57600080fd5b50565b611ab6816119a8565b8114611ac157600080fd5b50565b611acd816119b4565b8114611ad857600080fd5b50565b611ae4816119e6565b8114611aef57600080fd5b5056fea264697066735822122003fa90971fefaf18ed5edd167668f76073fdd6f10fab558b08e1fa772ccdf7ad64736f6c63430008000033",
  "immutableReferences": {},
  "source": "// SPDX-License-Identifier: GPL-3.0\r\npragma solidity ^0.8.0;\r\n\r\nimport \"contracts/LiquidityPool.sol\";\r\nimport \"contracts/TestToken.sol\";\r\nimport \"@openzeppelin/contracts/access/Ownable.sol\";\r\nimport \"@openzeppelin/contracts/utils/math/SafeMath.sol\";\r\nimport \"@openzeppelin/contracts/token/ERC20/ERC20.sol\";\r\n\r\nimport \"contracts/TDAI.sol\";\r\n\r\n\r\ncontract TestSwap is LiquidityPool, Ownable\r\n{\r\n    using SafeMath for uint256;\r\n\r\n    TestToken public token;\r\n    \r\n    ERC20 public usdtToken;\r\n\r\n    ERC20 public tDAI;\r\n    \r\n    bool public flag = false;\r\n\r\n    // reserve1 * reserve2 = invariant\r\n    uint256 public invariant; \r\n    \r\n    constructor()\r\n    {\r\n        usdtToken = ERC20(0xaD6D458402F60fD3Bd25163575031ACDce07538D);\r\n        //token = _token;\r\n        \r\n        //reserve.reserve1 = 1000000000000000000000;\r\n        //reserve0 = token.balanceOf(msg.sender);\r\n    }\r\n    \r\n    event AddressSet(address addr);\r\n\r\n    event TokensBought(address buyer, uint256 _value, uint256 _amount);\r\n\r\n    event TokensSold(address seller, uint256 _value, uint256 _amount);\r\n\r\n    function setTokenPrice(uint256 _price) public onlyOwner\r\n    {\r\n        uint256 daiReserve = TestToken(token).totalSupply().mul(_price);\r\n        update(TestToken(token).totalSupply(), daiReserve);\r\n    }\r\n\r\n    function setTokenAddr(TestToken _token) \r\n    public\r\n    onlyOwner\r\n    {\r\n        token = _token;\r\n        update(token.balanceOf(address(this)), 50000000000000000000);\r\n        invariant = getInvariant();\r\n        emit AddressSet(address(token));\r\n    }\r\n\r\n    function setTestDaiAddr(address _tDAI)\r\n    public\r\n    onlyOwner\r\n    {\r\n        tDAI = ERC20(_tDAI);\r\n    }\r\n\r\n    function getTokenAddress() public view returns(address)\r\n    {\r\n        return address(token);\r\n    }\r\n\r\n    function swapExactDAIforTTL(address to, uint256 amountIn) \r\n    public\r\n    payable\r\n    {\r\n        (uint256 _reserve0, uint256 _reserve1) = getReserves();\r\n        uint256 newDaiReserve = _reserve1.add(amountIn);\r\n\r\n        uint256 newTokenReserve = invariant.div(newDaiReserve);\r\n        uint256 amountOut = _reserve0 - newTokenReserve;\r\n        \r\n        usdtToken.transferFrom(to, address(this), amountIn);\r\n        //tDAI.transferFrom(buyer, address(this), amountIn);\r\n        TestToken(token).transfer(to, amountOut);\r\n\r\n        update(newTokenReserve, newDaiReserve);\r\n        emit TokensBought(to, amountIn, amountOut);\r\n\r\n    }\r\n    function swapExactTTLforDAI(address to, uint256 amountIn) \r\n    public\r\n    payable\r\n    {\r\n        (uint256 _reserve0, uint256 _reserve1) = getReserves();\r\n        uint256 newTokenReserve = _reserve0.add(amountIn);\r\n\r\n\r\n        uint256 newDaiReserve = invariant.div(newTokenReserve);\r\n        uint256 amountOut = _reserve1 - newDaiReserve;\r\n        \r\n        \r\n        //tDAI.transfer(to, amountOut);\r\n        TestToken(token).transferFrom(to, address(this), amountIn);\r\n        usdtToken.transfer(to, amountOut);\r\n\r\n        update(newTokenReserve, newDaiReserve);\r\n        emit TokensBought(to, amountIn, amountOut);\r\n\r\n    }\r\n    \r\n\r\n    function swapDAIforExactTTL(address buyer, uint256 amountOut)\r\n    public \r\n    payable\r\n    {\r\n        //path = _path;\r\n        \r\n        (uint256 _reserve0, uint256 _reserve1) = getReserves();\r\n        uint256 previousReserve1 = _reserve1;\r\n         \r\n        require(_reserve0 >= amountOut);\r\n        uint256 newReserve0 = _reserve0.sub(amountOut);\r\n        uint256 newReserve1;\r\n        if(newReserve0 == 0)\r\n        {\r\n            newReserve1 = invariant.mul(1000);\r\n        }\r\n        else{\r\n            newReserve1 = invariant.div(newReserve0);\r\n        }\r\n\r\n        uint256 value = newReserve1.sub(previousReserve1);\r\n        \r\n        //require(tDAI.balanceOf(buyer) >= value);\r\n        require(usdtToken.balanceOf(buyer) >= value);\r\n        require(token.balanceOf(address(this)) >= amountOut);\r\n\r\n        usdtToken.transferFrom(buyer, address(this), value);\r\n        //tDAI.transferFrom(buyer, address(this), value);\r\n        TestToken(token).transfer(buyer, amountOut);\r\n\r\n        update(newReserve0, newReserve1);\r\n        emit TokensBought(buyer, value, amountOut);\r\n    }\r\n    \r\n}",
  "sourcePath": "D:/Programs/WebProjects/test-dex/contracts/Swap.sol",
  "compiler": {
    "name": "solc",
    "version": "0.8.0+commit.c7dfd78e.Emscripten.clang"
  },
  "schemaVersion": "3.4.0",
  "updatedAt": "2021-05-07T15:01:10.374Z",
  "networkType": "ethereum",
  "devdoc": {
    "kind": "dev",
    "methods": {
      "owner()": {
        "details": "Returns the address of the current owner."
      },
      "renounceOwnership()": {
        "details": "Leaves the contract without owner. It will not be possible to call `onlyOwner` functions anymore. Can only be called by the current owner. NOTE: Renouncing ownership will leave the contract without an owner, thereby removing any functionality that is only available to the owner."
      },
      "transferOwnership(address)": {
        "details": "Transfers ownership of the contract to a new account (`newOwner`). Can only be called by the current owner."
      }
    },
    "version": 1
  },
  "userdoc": {
    "kind": "user",
    "methods": {},
    "version": 1
  }
}